{
  "_format": "hh-sol-artifact-1",
  "contractName": "PeraStaking",
  "sourceName": "contracts/PeraStaking.sol",
  "abi": [
    {
      "inputs": [
        {
          "internalType": "address",
          "name": "_mainTokenAddress",
          "type": "address"
        },
        {
          "internalType": "address",
          "name": "_penaltyAddress",
          "type": "address"
        },
        {
          "internalType": "uint256",
          "name": "_rewardRate",
          "type": "uint256"
        },
        {
          "internalType": "uint256",
          "name": "_lockLimit",
          "type": "uint256"
        }
      ],
      "stateMutability": "nonpayable",
      "type": "constructor"
    },
    {
      "anonymous": false,
      "inputs": [
        {
          "indexed": false,
          "internalType": "bool",
          "name": "_newStatus",
          "type": "bool"
        }
      ],
      "name": "ClaimStatusChanged",
      "type": "event"
    },
    {
      "anonymous": false,
      "inputs": [
        {
          "indexed": false,
          "internalType": "address",
          "name": "_user",
          "type": "address"
        }
      ],
      "name": "Claimed",
      "type": "event"
    },
    {
      "anonymous": false,
      "inputs": [
        {
          "indexed": false,
          "internalType": "bool",
          "name": "_newStatus",
          "type": "bool"
        }
      ],
      "name": "EmergencyStatusChanged",
      "type": "event"
    },
    {
      "anonymous": false,
      "inputs": [
        {
          "indexed": false,
          "internalType": "address",
          "name": "_user",
          "type": "address"
        },
        {
          "indexed": false,
          "internalType": "uint256",
          "name": "_amount",
          "type": "uint256"
        }
      ],
      "name": "IncreaseStaked",
      "type": "event"
    },
    {
      "anonymous": false,
      "inputs": [
        {
          "indexed": false,
          "internalType": "uint256",
          "name": "_lockLimit",
          "type": "uint256"
        }
      ],
      "name": "LockLimitChanged",
      "type": "event"
    },
    {
      "anonymous": false,
      "inputs": [
        {
          "indexed": false,
          "internalType": "address",
          "name": "_tokenAddress",
          "type": "address"
        },
        {
          "indexed": false,
          "internalType": "uint256",
          "name": "_id",
          "type": "uint256"
        }
      ],
      "name": "NewReward",
      "type": "event"
    },
    {
      "anonymous": false,
      "inputs": [
        {
          "indexed": true,
          "internalType": "address",
          "name": "previousOwner",
          "type": "address"
        },
        {
          "indexed": true,
          "internalType": "address",
          "name": "newOwner",
          "type": "address"
        }
      ],
      "name": "OwnershipTransferred",
      "type": "event"
    },
    {
      "anonymous": false,
      "inputs": [
        {
          "indexed": false,
          "internalType": "address",
          "name": "_user",
          "type": "address"
        },
        {
          "indexed": false,
          "internalType": "uint256",
          "name": "_burntAmount",
          "type": "uint256"
        },
        {
          "indexed": false,
          "internalType": "uint256",
          "name": "_amount",
          "type": "uint256"
        }
      ],
      "name": "PunishedWithdraw",
      "type": "event"
    },
    {
      "anonymous": false,
      "inputs": [
        {
          "indexed": false,
          "internalType": "bool",
          "name": "_newStatus",
          "type": "bool"
        }
      ],
      "name": "StakeStatusChanged",
      "type": "event"
    },
    {
      "anonymous": false,
      "inputs": [
        {
          "indexed": false,
          "internalType": "address",
          "name": "_user",
          "type": "address"
        },
        {
          "indexed": false,
          "internalType": "uint256",
          "name": "_amount",
          "type": "uint256"
        },
        {
          "indexed": false,
          "internalType": "uint256",
          "name": "_time",
          "type": "uint256"
        }
      ],
      "name": "Staked",
      "type": "event"
    },
    {
      "anonymous": false,
      "inputs": [
        {
          "indexed": false,
          "internalType": "address",
          "name": "_user",
          "type": "address"
        },
        {
          "indexed": false,
          "internalType": "uint256",
          "name": "_amount",
          "type": "uint256"
        }
      ],
      "name": "Withdraw",
      "type": "event"
    },
    {
      "stateMutability": "nonpayable",
      "type": "fallback"
    },
    {
      "inputs": [
        {
          "internalType": "address",
          "name": "_tokenAddress",
          "type": "address"
        },
        {
          "internalType": "uint256",
          "name": "_rewardRate",
          "type": "uint256"
        },
        {
          "internalType": "uint256",
          "name": "_deadline",
          "type": "uint256"
        },
        {
          "internalType": "uint8",
          "name": "_decimals",
          "type": "uint8"
        }
      ],
      "name": "addNewRewardToken",
      "outputs": [],
      "stateMutability": "nonpayable",
      "type": "function"
    },
    {
      "inputs": [
        {
          "internalType": "uint256",
          "name": "_amount",
          "type": "uint256"
        }
      ],
      "name": "additionalStake",
      "outputs": [],
      "stateMutability": "nonpayable",
      "type": "function"
    },
    {
      "inputs": [
        {
          "internalType": "uint256",
          "name": "_weight",
          "type": "uint256"
        }
      ],
      "name": "calcMainAPR",
      "outputs": [
        {
          "internalType": "uint256",
          "name": "",
          "type": "uint256"
        }
      ],
      "stateMutability": "view",
      "type": "function"
    },
    {
      "inputs": [
        {
          "internalType": "uint256",
          "name": "_time",
          "type": "uint256"
        }
      ],
      "name": "calcWeight",
      "outputs": [
        {
          "internalType": "uint16",
          "name": "",
          "type": "uint16"
        }
      ],
      "stateMutability": "pure",
      "type": "function"
    },
    {
      "inputs": [
        {
          "internalType": "address",
          "name": "_user",
          "type": "address"
        }
      ],
      "name": "calcWeightedStake",
      "outputs": [
        {
          "internalType": "uint256",
          "name": "",
          "type": "uint256"
        }
      ],
      "stateMutability": "view",
      "type": "function"
    },
    {
      "inputs": [],
      "name": "changeClaimStatus",
      "outputs": [],
      "stateMutability": "nonpayable",
      "type": "function"
    },
    {
      "inputs": [
        {
          "internalType": "uint256",
          "name": "_id",
          "type": "uint256"
        },
        {
          "internalType": "uint256",
          "name": "_time",
          "type": "uint256"
        }
      ],
      "name": "changeDeadline",
      "outputs": [],
      "stateMutability": "nonpayable",
      "type": "function"
    },
    {
      "inputs": [],
      "name": "changeEmergencyStatus",
      "outputs": [],
      "stateMutability": "nonpayable",
      "type": "function"
    },
    {
      "inputs": [
        {
          "internalType": "address",
          "name": "_newAddress",
          "type": "address"
        }
      ],
      "name": "changePenaltyAddress",
      "outputs": [],
      "stateMutability": "nonpayable",
      "type": "function"
    },
    {
      "inputs": [],
      "name": "changeStakeStatus",
      "outputs": [],
      "stateMutability": "nonpayable",
      "type": "function"
    },
    {
      "inputs": [],
      "name": "claimAllRewards",
      "outputs": [],
      "stateMutability": "nonpayable",
      "type": "function"
    },
    {
      "inputs": [
        {
          "internalType": "uint256",
          "name": "_id",
          "type": "uint256"
        }
      ],
      "name": "claimSingleReward",
      "outputs": [],
      "stateMutability": "nonpayable",
      "type": "function"
    },
    {
      "inputs": [
        {
          "internalType": "uint256",
          "name": "_id",
          "type": "uint256"
        }
      ],
      "name": "delistRewardToken",
      "outputs": [],
      "stateMutability": "nonpayable",
      "type": "function"
    },
    {
      "inputs": [
        {
          "internalType": "uint256",
          "name": "_id",
          "type": "uint256"
        },
        {
          "internalType": "uint256",
          "name": "_amount",
          "type": "uint256"
        }
      ],
      "name": "depositRewardTokens",
      "outputs": [],
      "stateMutability": "nonpayable",
      "type": "function"
    },
    {
      "inputs": [
        {
          "internalType": "address",
          "name": "_user",
          "type": "address"
        },
        {
          "internalType": "uint256",
          "name": "_rewardTokenIndex",
          "type": "uint256"
        }
      ],
      "name": "earned",
      "outputs": [
        {
          "internalType": "uint256",
          "name": "",
          "type": "uint256"
        }
      ],
      "stateMutability": "view",
      "type": "function"
    },
    {
      "inputs": [],
      "name": "emergencyWithdraw",
      "outputs": [],
      "stateMutability": "nonpayable",
      "type": "function"
    },
    {
      "inputs": [
        {
          "internalType": "uint256",
          "name": "_amount",
          "type": "uint256"
        },
        {
          "internalType": "uint256",
          "name": "_time",
          "type": "uint256"
        }
      ],
      "name": "initialStake",
      "outputs": [],
      "stateMutability": "nonpayable",
      "type": "function"
    },
    {
      "inputs": [],
      "name": "isClaimOpen",
      "outputs": [
        {
          "internalType": "bool",
          "name": "",
          "type": "bool"
        }
      ],
      "stateMutability": "view",
      "type": "function"
    },
    {
      "inputs": [],
      "name": "isEmergencyOpen",
      "outputs": [
        {
          "internalType": "bool",
          "name": "",
          "type": "bool"
        }
      ],
      "stateMutability": "view",
      "type": "function"
    },
    {
      "inputs": [],
      "name": "isStakeOpen",
      "outputs": [
        {
          "internalType": "bool",
          "name": "",
          "type": "bool"
        }
      ],
      "stateMutability": "view",
      "type": "function"
    },
    {
      "inputs": [],
      "name": "lastUpdateTime",
      "outputs": [
        {
          "internalType": "uint256",
          "name": "",
          "type": "uint256"
        }
      ],
      "stateMutability": "view",
      "type": "function"
    },
    {
      "inputs": [],
      "name": "lockLimit",
      "outputs": [
        {
          "internalType": "uint256",
          "name": "",
          "type": "uint256"
        }
      ],
      "stateMutability": "view",
      "type": "function"
    },
    {
      "inputs": [],
      "name": "owner",
      "outputs": [
        {
          "internalType": "address",
          "name": "",
          "type": "address"
        }
      ],
      "stateMutability": "view",
      "type": "function"
    },
    {
      "inputs": [],
      "name": "penaltyAddress",
      "outputs": [
        {
          "internalType": "address",
          "name": "",
          "type": "address"
        }
      ],
      "stateMutability": "view",
      "type": "function"
    },
    {
      "inputs": [],
      "name": "renounceOwnership",
      "outputs": [],
      "stateMutability": "nonpayable",
      "type": "function"
    },
    {
      "inputs": [
        {
          "internalType": "uint256",
          "name": "_rewardTokenIndex",
          "type": "uint256"
        }
      ],
      "name": "rewardPerToken",
      "outputs": [
        {
          "internalType": "uint256",
          "name": "",
          "type": "uint256"
        }
      ],
      "stateMutability": "view",
      "type": "function"
    },
    {
      "inputs": [
        {
          "internalType": "uint256",
          "name": "_lockLimit",
          "type": "uint256"
        }
      ],
      "name": "setLockLimit",
      "outputs": [],
      "stateMutability": "nonpayable",
      "type": "function"
    },
    {
      "inputs": [],
      "name": "totalStaked",
      "outputs": [
        {
          "internalType": "uint256",
          "name": "",
          "type": "uint256"
        }
      ],
      "stateMutability": "view",
      "type": "function"
    },
    {
      "inputs": [
        {
          "internalType": "address",
          "name": "newOwner",
          "type": "address"
        }
      ],
      "name": "transferOwnership",
      "outputs": [],
      "stateMutability": "nonpayable",
      "type": "function"
    },
    {
      "inputs": [
        {
          "internalType": "address",
          "name": "",
          "type": "address"
        }
      ],
      "name": "userData",
      "outputs": [
        {
          "internalType": "uint256",
          "name": "userStaked",
          "type": "uint256"
        },
        {
          "internalType": "uint16",
          "name": "userWeights",
          "type": "uint16"
        },
        {
          "internalType": "uint48",
          "name": "stakedTimestamp",
          "type": "uint48"
        },
        {
          "internalType": "uint48",
          "name": "userUnlockingTime",
          "type": "uint48"
        }
      ],
      "stateMutability": "view",
      "type": "function"
    },
    {
      "inputs": [],
      "name": "wTotalStaked",
      "outputs": [
        {
          "internalType": "uint256",
          "name": "",
          "type": "uint256"
        }
      ],
      "stateMutability": "view",
      "type": "function"
    },
    {
      "inputs": [],
      "name": "withdraw",
      "outputs": [],
      "stateMutability": "nonpayable",
      "type": "function"
    },
    {
      "inputs": [
        {
          "internalType": "address",
          "name": "_tokenAddress",
          "type": "address"
        },
        {
          "internalType": "uint256",
          "name": "_amount",
          "type": "uint256"
        }
      ],
      "name": "withdrawStuckTokens",
      "outputs": [],
      "stateMutability": "nonpayable",
      "type": "function"
    },
    {
      "stateMutability": "payable",
      "type": "receive"
    }
  ],
  "bytecode": "0x60806040523480156200001157600080fd5b506040516200717f3803806200717f83398181016040528101906200003791906200047b565b620000576200004b620002c260201b60201c565b620002ca60201b60201c565b600073ffffffffffffffffffffffffffffffffffffffff168473ffffffffffffffffffffffffffffffffffffffff161415620000ca576040517f08c379a0000000000000000000000000000000000000000000000000000000008152600401620000c1906200050e565b60405180910390fd5b600073ffffffffffffffffffffffffffffffffffffffff168373ffffffffffffffffffffffffffffffffffffffff1614156200013d576040517f08c379a000000000000000000000000000000000000000000000000000000000815260040162000134906200050e565b60405180910390fd5b60006040518060a001604052808673ffffffffffffffffffffffffffffffffffffffff1681526020018481526020016000815260200160008152602001601260ff168152509050600181908060018154018082558091505060019003906000526020600020906005020160009091909190915060008201518160000160006101000a81548173ffffffffffffffffffffffffffffffffffffffff021916908373ffffffffffffffffffffffffffffffffffffffff16021790555060208201518160010155604082015181600201556060820151816003015560808201518160040160006101000a81548160ff021916908360ff160217905550505062000265600180805490506200024f919062000541565b60026200038e60201b6200478c1790919060201c565b6200026f57600080fd5b83600b60006101000a81548173ffffffffffffffffffffffffffffffffffffffff021916908373ffffffffffffffffffffffffffffffffffffffff16021790555081600781905550505050505062000646565b600033905090565b60008060009054906101000a900473ffffffffffffffffffffffffffffffffffffffff169050816000806101000a81548173ffffffffffffffffffffffffffffffffffffffff021916908373ffffffffffffffffffffffffffffffffffffffff1602179055508173ffffffffffffffffffffffffffffffffffffffff168173ffffffffffffffffffffffffffffffffffffffff167f8be0079c531659141344cd1fd0a4f28419497f9722a3daafe3b4186f6b6457e060405160405180910390a35050565b6000620003a8836000018360001b620003b060201b60201c565b905092915050565b6000620003c483836200042a60201b60201c565b6200041f57826000018290806001815401808255809150506001900390600052602060002001600090919091909150558260000180549050836001016000848152602001908152602001600020819055506001905062000424565b600090505b92915050565b600080836001016000848152602001908152602001600020541415905092915050565b6000815190506200045e8162000612565b92915050565b60008151905062000475816200062c565b92915050565b600080600080608085870312156200049257600080fd5b6000620004a2878288016200044d565b9450506020620004b5878288016200044d565b9350506040620004c88782880162000464565b9250506060620004db8782880162000464565b91505092959194509250565b6000620004f660138362000530565b91506200050382620005e9565b602082019050919050565b600060208201905081810360008301526200052981620004e7565b9050919050565b600082825260208201905092915050565b60006200054e82620005b0565b91506200055b83620005b0565b925082821015620005715762000570620005ba565b5b828203905092915050565b6000620005898262000590565b9050919050565b600073ffffffffffffffffffffffffffffffffffffffff82169050919050565b6000819050919050565b7f4e487b7100000000000000000000000000000000000000000000000000000000600052601160045260246000fd5b7f5b5d2041646472657373206661696c7572652e00000000000000000000000000600082015250565b6200061d816200057c565b81146200062957600080fd5b50565b6200063781620005b0565b81146200064357600080fd5b50565b616b2980620006566000396000f3fe6080604052600436106101f25760003560e01c8063897b57941161010d578063c72390ac116100a0578063d39b85e61161006f578063d39b85e6146106bd578063d8256d4c146106d4578063db2e21bc146106fd578063f26d9f2f14610714578063f2fde38b1461073d576101fc565b8063c72390ac146105ec578063c891091314610615578063c8f33c9114610655578063cc997c1614610680576101fc565b8063aeddf677116100dc578063aeddf67714610556578063b074d2f614610581578063b6bd83ef146105ac578063bd61f0a6146105c3576101fc565b8063897b5794146104ae5780638da5cb5b146104d95780639aa037f014610504578063a32bdee91461052d576101fc565b80634338f74711610185578063733318231161015457806373331823146104045780637462f9b61461041b578063817b1cd214610446578063874c120b14610471576101fc565b80634338f7471461035c5780634e65f29b14610387578063609789ba146103c4578063715018a6146103ed576101fc565b806324fd2652116101c157806324fd2652146102b45780632dfd901f146102df5780633ccfd60b146103085780633e491d471461031f576101fc565b80630b83a7271461020e578063130bfeea146102255780631786e6951461024e57806319aa013314610277576101fc565b366101fc57600080fd5b34801561020857600080fd5b50600080fd5b34801561021a57600080fd5b50610223610766565b005b34801561023157600080fd5b5061024c60048036038101906102479190615420565b610d43565b005b34801561025a57600080fd5b5061027560048036038101906102709190615472565b611144565b005b34801561028357600080fd5b5061029e6004803603810190610299919061532f565b61154d565b6040516102ab9190615e1b565b60405180910390f35b3480156102c057600080fd5b506102c96115f8565b6040516102d69190615a23565b60405180910390f35b3480156102eb57600080fd5b506103066004803603810190610301919061532f565b61160b565b005b34801561031457600080fd5b5061031d61173b565b005b34801561032b57600080fd5b5061034660048036038101906103419190615358565b611e4a565b6040516103539190615e1b565b60405180910390f35b34801561036857600080fd5b50610371611ffe565b60405161037e9190615a23565b60405180910390f35b34801561039357600080fd5b506103ae60048036038101906103a99190615420565b612011565b6040516103bb9190615e00565b60405180910390f35b3480156103d057600080fd5b506103eb60048036038101906103e69190615394565b612096565b005b3480156103f957600080fd5b50610402612556565b005b34801561041057600080fd5b506104196125de565b005b34801561042757600080fd5b50610430612711565b60405161043d9190615a23565b60405180910390f35b34801561045257600080fd5b5061045b612724565b6040516104689190615e1b565b60405180910390f35b34801561047d57600080fd5b5061049860048036038101906104939190615420565b61272a565b6040516104a59190615e1b565b60405180910390f35b3480156104ba57600080fd5b506104c3612901565b6040516104d09190615e1b565b60405180910390f35b3480156104e557600080fd5b506104ee612907565b6040516104fb9190615971565b60405180910390f35b34801561051057600080fd5b5061052b60048036038101906105269190615472565b612930565b005b34801561053957600080fd5b50610554600480360381019061054f9190615420565b612a9b565b005b34801561056257600080fd5b5061056b612b58565b6040516105789190615e1b565b60405180910390f35b34801561058d57600080fd5b50610596612b5e565b6040516105a39190615971565b60405180910390f35b3480156105b857600080fd5b506105c1612b84565b005b3480156105cf57600080fd5b506105ea60048036038101906105e59190615358565b612c72565b005b3480156105f857600080fd5b50610613600480360381019061060e9190615420565b612f02565b005b34801561062157600080fd5b5061063c6004803603810190610637919061532f565b6134e5565b60405161064c9493929190615e36565b60405180910390f35b34801561066157600080fd5b5061066a613547565b6040516106779190615e1b565b60405180910390f35b34801561068c57600080fd5b506106a760048036038101906106a29190615420565b61354d565b6040516106b49190615e1b565b60405180910390f35b3480156106c957600080fd5b506106d26135d7565b005b3480156106e057600080fd5b506106fb60048036038101906106f69190615472565b6136c5565b005b34801561070957600080fd5b50610712613cdc565b005b34801561072057600080fd5b5061073b60048036038101906107369190615420565b614113565b005b34801561074957600080fd5b50610764600480360381019061075f919061532f565b614694565b005b600b60159054906101000a900460ff166107b5576040517f08c379a00000000000000000000000000000000000000000000000000000000081526004016107ac90615d00565b60405180910390fd5b3360005b6107c360026147a6565b811015610a0d57600060085490506107ed6107e88360026147bb90919063ffffffff16565b61272a565b60016108038460026147bb90919063ffffffff16565b8154811061083a577f4e487b7100000000000000000000000000000000000000000000000000000000600052603260045260246000fd5b90600052602060002090600502016002018190555042600881905550600073ffffffffffffffffffffffffffffffffffffffff168373ffffffffffffffffffffffffffffffffffffffff16146109d5576108a7836108a28460026147bb90919063ffffffff16565b611e4a565b600660006108bf8560026147bb90919063ffffffff16565b815260200190815260200160002060008573ffffffffffffffffffffffffffffffffffffffff1673ffffffffffffffffffffffffffffffffffffffff1681526020019081526020016000208190555060016109248360026147bb90919063ffffffff16565b8154811061095b577f4e487b7100000000000000000000000000000000000000000000000000000000600052603260045260246000fd5b906000526020600020906005020160020154600560006109858560026147bb90919063ffffffff16565b815260200190815260200160002060008573ffffffffffffffffffffffffffffffffffffffff1673ffffffffffffffffffffffffffffffffffffffff168152602001908152602001600020819055505b60016109e160026147a6565b6109eb91906160ff565b82146109f957806008819055505b508080610a059061620f565b9150506107b9565b507fb449c24d261a59627b537c8c41c57ab559f4205c56bea745ff61c5521bece21433604051610a3d9190615971565b60405180910390a160005b610a5260026147a6565b811015610d3f57600060066000610a738460026147bb90919063ffffffff16565b815260200190815260200160002060003373ffffffffffffffffffffffffffffffffffffffff1673ffffffffffffffffffffffffffffffffffffffff1681526020019081526020016000205490506000811115610d2b576000821415610c1857600954816001600081548110610b12577f4e487b7100000000000000000000000000000000000000000000000000000000600052603260045260246000fd5b906000526020600020906005020160000160009054906101000a900473ffffffffffffffffffffffffffffffffffffffff1673ffffffffffffffffffffffffffffffffffffffff166370a08231306040518263ffffffff1660e01b8152600401610b7c9190615971565b60206040518083038186803b158015610b9457600080fd5b505afa158015610ba8573d6000803e3d6000fd5b505050506040513d601f19601f82011682018060405250810190610bcc9190615449565b610bd691906160ff565b1015610c17576040517f08c379a0000000000000000000000000000000000000000000000000000000008152600401610c0e90615cc0565b60405180910390fd5b5b600060066000610c328560026147bb90919063ffffffff16565b815260200190815260200160002060003373ffffffffffffffffffffffffffffffffffffffff1673ffffffffffffffffffffffffffffffffffffffff16815260200190815260200160002081905550610d2a33826001610c9c8660026147bb90919063ffffffff16565b81548110610cd3577f4e487b7100000000000000000000000000000000000000000000000000000000600052603260045260246000fd5b906000526020600020906005020160000160009054906101000a900473ffffffffffffffffffffffffffffffffffffffff1673ffffffffffffffffffffffffffffffffffffffff166147d59092919063ffffffff16565b5b508080610d379061620f565b915050610a48565b5050565b610d4b61485b565b73ffffffffffffffffffffffffffffffffffffffff16610d69612907565b73ffffffffffffffffffffffffffffffffffffffff1614610dbf576040517f08c379a0000000000000000000000000000000000000000000000000000000008152600401610db690615c80565b60405180910390fd5b600080600090505b610dd160026147a6565b81101561101b5760006008549050610dfb610df68360026147bb90919063ffffffff16565b61272a565b6001610e118460026147bb90919063ffffffff16565b81548110610e48577f4e487b7100000000000000000000000000000000000000000000000000000000600052603260045260246000fd5b90600052602060002090600502016002018190555042600881905550600073ffffffffffffffffffffffffffffffffffffffff168373ffffffffffffffffffffffffffffffffffffffff1614610fe357610eb583610eb08460026147bb90919063ffffffff16565b611e4a565b60066000610ecd8560026147bb90919063ffffffff16565b815260200190815260200160002060008573ffffffffffffffffffffffffffffffffffffffff1673ffffffffffffffffffffffffffffffffffffffff168152602001908152602001600020819055506001610f328360026147bb90919063ffffffff16565b81548110610f69577f4e487b7100000000000000000000000000000000000000000000000000000000600052603260045260246000fd5b90600052602060002090600502016002015460056000610f938560026147bb90919063ffffffff16565b815260200190815260200160002060008573ffffffffffffffffffffffffffffffffffffffff1673ffffffffffffffffffffffffffffffffffffffff168152602001908152602001600020819055505b6001610fef60026147a6565b610ff991906160ff565b821461100757806008819055505b5080806110139061620f565b915050610dc7565b504260018381548110611057577f4e487b7100000000000000000000000000000000000000000000000000000000600052603260045260246000fd5b906000526020600020906005020160030154106110a9576040517f08c379a00000000000000000000000000000000000000000000000000000000081526004016110a090615b80565b60405180910390fd5b60008214156110ed576040517f08c379a00000000000000000000000000000000000000000000000000000000081526004016110e490615dc0565b60405180910390fd5b61110182600261486390919063ffffffff16565b611140576040517f08c379a000000000000000000000000000000000000000000000000000000000815260040161113790615c00565b60405180910390fd5b5050565b600080600090505b61115660026147a6565b8110156113a0576000600854905061118061117b8360026147bb90919063ffffffff16565b61272a565b60016111968460026147bb90919063ffffffff16565b815481106111cd577f4e487b7100000000000000000000000000000000000000000000000000000000600052603260045260246000fd5b90600052602060002090600502016002018190555042600881905550600073ffffffffffffffffffffffffffffffffffffffff168373ffffffffffffffffffffffffffffffffffffffff16146113685761123a836112358460026147bb90919063ffffffff16565b611e4a565b600660006112528560026147bb90919063ffffffff16565b815260200190815260200160002060008573ffffffffffffffffffffffffffffffffffffffff1673ffffffffffffffffffffffffffffffffffffffff1681526020019081526020016000208190555060016112b78360026147bb90919063ffffffff16565b815481106112ee577f4e487b7100000000000000000000000000000000000000000000000000000000600052603260045260246000fd5b906000526020600020906005020160020154600560006113188560026147bb90919063ffffffff16565b815260200190815260200160002060008573ffffffffffffffffffffffffffffffffffffffff1673ffffffffffffffffffffffffffffffffffffffff168152602001908152602001600020819055505b600161137460026147a6565b61137e91906160ff565b821461138c57806008819055505b5080806113989061620f565b91505061114c565b506113a961485b565b73ffffffffffffffffffffffffffffffffffffffff166113c7612907565b73ffffffffffffffffffffffffffffffffffffffff161461141d576040517f08c379a000000000000000000000000000000000000000000000000000000000815260040161141490615c80565b60405180910390fd5b428210158061142c5750600082145b61146b576040517f08c379a000000000000000000000000000000000000000000000000000000000815260040161146290615c20565b60405180910390fd5b42600184815481106114a6577f4e487b7100000000000000000000000000000000000000000000000000000000600052603260045260246000fd5b906000526020600020906005020160030154116114f8576040517f08c379a00000000000000000000000000000000000000000000000000000000081526004016114ef90615d40565b60405180910390fd5b8160018481548110611533577f4e487b7100000000000000000000000000000000000000000000000000000000600052603260045260246000fd5b906000526020600020906005020160030181905550505050565b6000600460008373ffffffffffffffffffffffffffffffffffffffff1673ffffffffffffffffffffffffffffffffffffffff16815260200190815260200160002060000154600460008473ffffffffffffffffffffffffffffffffffffffff1673ffffffffffffffffffffffffffffffffffffffff16815260200190815260200160002060010160009054906101000a900461ffff1661ffff166115f191906160a5565b9050919050565b600b60159054906101000a900460ff1681565b61161361485b565b73ffffffffffffffffffffffffffffffffffffffff16611631612907565b73ffffffffffffffffffffffffffffffffffffffff1614611687576040517f08c379a000000000000000000000000000000000000000000000000000000000815260040161167e90615c80565b60405180910390fd5b600073ffffffffffffffffffffffffffffffffffffffff168173ffffffffffffffffffffffffffffffffffffffff1614156116f7576040517f08c379a00000000000000000000000000000000000000000000000000000000081526004016116ee90615d80565b60405180910390fd5b80600b60006101000a81548173ffffffffffffffffffffffffffffffffffffffff021916908373ffffffffffffffffffffffffffffffffffffffff16021790555050565b3360005b61174960026147a6565b811015611993576000600854905061177361176e8360026147bb90919063ffffffff16565b61272a565b60016117898460026147bb90919063ffffffff16565b815481106117c0577f4e487b7100000000000000000000000000000000000000000000000000000000600052603260045260246000fd5b90600052602060002090600502016002018190555042600881905550600073ffffffffffffffffffffffffffffffffffffffff168373ffffffffffffffffffffffffffffffffffffffff161461195b5761182d836118288460026147bb90919063ffffffff16565b611e4a565b600660006118458560026147bb90919063ffffffff16565b815260200190815260200160002060008573ffffffffffffffffffffffffffffffffffffffff1673ffffffffffffffffffffffffffffffffffffffff1681526020019081526020016000208190555060016118aa8360026147bb90919063ffffffff16565b815481106118e1577f4e487b7100000000000000000000000000000000000000000000000000000000600052603260045260246000fd5b9060005260206000209060050201600201546005600061190b8560026147bb90919063ffffffff16565b815260200190815260200160002060008573ffffffffffffffffffffffffffffffffffffffff1673ffffffffffffffffffffffffffffffffffffffff168152602001908152602001600020819055505b600161196760026147a6565b61197191906160ff565b821461197f57806008819055505b50808061198b9061620f565b91505061173f565b506000600460003373ffffffffffffffffffffffffffffffffffffffff1673ffffffffffffffffffffffffffffffffffffffff1681526020019081526020016000206000015411611a19576040517f08c379a0000000000000000000000000000000000000000000000000000000008152600401611a1090615ac0565b60405180910390fd5b6000600460003373ffffffffffffffffffffffffffffffffffffffff1673ffffffffffffffffffffffffffffffffffffffff16815260200190815260200160002060010160089054906101000a900465ffffffffffff1665ffffffffffff164210611afe577f884edad9ce6fa2440d8a54cc123490eb96d2768479d49ff9c7366125a942436433600460003373ffffffffffffffffffffffffffffffffffffffff1673ffffffffffffffffffffffffffffffffffffffff16815260200190815260200160002060000154604051611af19291906159c3565b60405180910390a1611d40565b600460003373ffffffffffffffffffffffffffffffffffffffff1673ffffffffffffffffffffffffffffffffffffffff16815260200190815260200160002060010160029054906101000a900465ffffffffffff16600460003373ffffffffffffffffffffffffffffffffffffffff1673ffffffffffffffffffffffffffffffffffffffff16815260200190815260200160002060010160089054906101000a900465ffffffffffff16611bb29190616133565b65ffffffffffff16603242600460003373ffffffffffffffffffffffffffffffffffffffff1673ffffffffffffffffffffffffffffffffffffffff16815260200190815260200160002060010160089054906101000a900465ffffffffffff1665ffffffffffff16611c2491906160ff565b611c2e91906160a5565b611c389190615f03565b6019611c449190615ead565b90507f04c195518a09ada3a26cf701f9b3db5348fda3c15ed573ca9418e2e1e18d2a8d33606483600460003373ffffffffffffffffffffffffffffffffffffffff1673ffffffffffffffffffffffffffffffffffffffff16815260200190815260200160002060000154611cb891906160a5565b611cc29190615f03565b6064846064611cd191906160ff565b600460003373ffffffffffffffffffffffffffffffffffffffff1673ffffffffffffffffffffffffffffffffffffffff16815260200190815260200160002060000154611d1e91906160a5565b611d289190615f03565b604051611d37939291906159ec565b60405180910390a15b600460003373ffffffffffffffffffffffffffffffffffffffff1673ffffffffffffffffffffffffffffffffffffffff16815260200190815260200160002060000154600460003373ffffffffffffffffffffffffffffffffffffffff1673ffffffffffffffffffffffffffffffffffffffff16815260200190815260200160002060010160009054906101000a900461ffff1661ffff16611de291906160a5565b600a6000828254611df391906160ff565b92505081905550611e46600460003373ffffffffffffffffffffffffffffffffffffffff1673ffffffffffffffffffffffffffffffffffffffff168152602001908152602001600020600001548261487d565b5050565b600080611e568361272a565b1415611eb4576006600083815260200190815260200160002060008473ffffffffffffffffffffffffffffffffffffffff1673ffffffffffffffffffffffffffffffffffffffff168152602001908152602001600020549050611ff8565b6006600083815260200190815260200160002060008473ffffffffffffffffffffffffffffffffffffffff1673ffffffffffffffffffffffffffffffffffffffff1681526020019081526020016000205460018381548110611f3f577f4e487b7100000000000000000000000000000000000000000000000000000000600052603260045260246000fd5b906000526020600020906005020160040160009054906101000a900460ff16600a611f6a9190615f87565b6005600085815260200190815260200160002060008673ffffffffffffffffffffffffffffffffffffffff1673ffffffffffffffffffffffffffffffffffffffff16815260200190815260200160002054611fc48561272a565b611fce91906160ff565b611fd78661154d565b611fe191906160a5565b611feb9190615f03565b611ff59190615ead565b90505b92915050565b600b60169054906101000a900460ff1681565b60008062015180836120239190615f03565b9050605a8111612038576103e8915050612091565b61016d811061204c576107d0915050612091565b6103e8620127696002605a8461206291906160ff565b61206c9190615f87565b6103e861207991906160a5565b6120839190615f03565b61208d9190615ead565b9150505b919050565b61209e61485b565b73ffffffffffffffffffffffffffffffffffffffff166120bc612907565b73ffffffffffffffffffffffffffffffffffffffff1614612112576040517f08c379a000000000000000000000000000000000000000000000000000000000815260040161210990615c80565b60405180910390fd5b600080600090505b61212460026147a6565b81101561236e576000600854905061214e6121498360026147bb90919063ffffffff16565b61272a565b60016121648460026147bb90919063ffffffff16565b8154811061219b577f4e487b7100000000000000000000000000000000000000000000000000000000600052603260045260246000fd5b90600052602060002090600502016002018190555042600881905550600073ffffffffffffffffffffffffffffffffffffffff168373ffffffffffffffffffffffffffffffffffffffff161461233657612208836122038460026147bb90919063ffffffff16565b611e4a565b600660006122208560026147bb90919063ffffffff16565b815260200190815260200160002060008573ffffffffffffffffffffffffffffffffffffffff1673ffffffffffffffffffffffffffffffffffffffff1681526020019081526020016000208190555060016122858360026147bb90919063ffffffff16565b815481106122bc577f4e487b7100000000000000000000000000000000000000000000000000000000600052603260045260246000fd5b906000526020600020906005020160020154600560006122e68560026147bb90919063ffffffff16565b815260200190815260200160002060008573ffffffffffffffffffffffffffffffffffffffff1673ffffffffffffffffffffffffffffffffffffffff168152602001908152602001600020819055505b600161234260026147a6565b61234c91906160ff565b821461235a57806008819055505b5080806123669061620f565b91505061211a565b50600073ffffffffffffffffffffffffffffffffffffffff168573ffffffffffffffffffffffffffffffffffffffff1614156123df576040517f08c379a00000000000000000000000000000000000000000000000000000000081526004016123d690615b00565b60405180910390fd5b60006040518060a001604052808773ffffffffffffffffffffffffffffffffffffffff168152602001868152602001600081526020018581526020018460ff168152509050600181908060018154018082558091505060019003906000526020600020906005020160009091909190915060008201518160000160006101000a81548173ffffffffffffffffffffffffffffffffffffffff021916908373ffffffffffffffffffffffffffffffffffffffff16021790555060208201518160010155604082015181600201556060820151816003015560808201518160040160006101000a81548160ff021916908360ff16021790555050506124fc600180805490506124ec91906160ff565b600261478c90919063ffffffff16565b61250557600080fd5b7f01f132e60506239e8c7aeeb029ac2aa3a506bd76fda96ffa1f02e2b193399905866001808054905061253891906160ff565b6040516125469291906159c3565b60405180910390a1505050505050565b61255e61485b565b73ffffffffffffffffffffffffffffffffffffffff1661257c612907565b73ffffffffffffffffffffffffffffffffffffffff16146125d2576040517f08c379a00000000000000000000000000000000000000000000000000000000081526004016125c990615c80565b60405180910390fd5b6125dc6000614b59565b565b6125e661485b565b73ffffffffffffffffffffffffffffffffffffffff16612604612907565b73ffffffffffffffffffffffffffffffffffffffff161461265a576040517f08c379a000000000000000000000000000000000000000000000000000000000815260040161265190615c80565b60405180910390fd5b600b60169054906101000a900460ff1615600b60166101000a81548160ff02191690831515021790555060005b61269160026147a6565b8110156126c8576126b56126af8260026147bb90919063ffffffff16565b42611144565b80806126c09061620f565b915050612687565b507f7a59f3d9b570b5d7464526b9724b380a8b5f006931c518f8a143e84e966d2c32600b60169054906101000a900460ff166040516127079190615a23565b60405180910390a1565b600b60149054906101000a900460ff1681565b60095481565b600080600a54141561273f57600090506128fc565b60006001838154811061277b577f4e487b7100000000000000000000000000000000000000000000000000000000600052603260045260246000fd5b9060005260206000209060050201600301549050600081148061279d57508042105b156127a6574290505b600060085482116127bb5760009050806127cd565b600854826127c991906160ff565b9050805b50600a546001858154811061280b577f4e487b7100000000000000000000000000000000000000000000000000000000600052603260045260246000fd5b906000526020600020906005020160040160009054906101000a900460ff16600a6128369190615f87565b60018681548110612870577f4e487b7100000000000000000000000000000000000000000000000000000000600052603260045260246000fd5b9060005260206000209060050201600101548361288d91906160a5565b61289791906160a5565b6128a19190615f03565b600185815481106128db577f4e487b7100000000000000000000000000000000000000000000000000000000600052603260045260246000fd5b9060005260206000209060050201600201546128f79190615ead565b925050505b919050565b600a5481565b60008060009054906101000a900473ffffffffffffffffffffffffffffffffffffffff16905090565b61293861485b565b73ffffffffffffffffffffffffffffffffffffffff16612956612907565b73ffffffffffffffffffffffffffffffffffffffff16146129ac576040517f08c379a00000000000000000000000000000000000000000000000000000000081526004016129a390615c80565b60405180910390fd5b6129c0826002614c1d90919063ffffffff16565b6129ff576040517f08c379a00000000000000000000000000000000000000000000000000000000081526004016129f690615b60565b60405180910390fd5b612a9733308360018681548110612a3f577f4e487b7100000000000000000000000000000000000000000000000000000000600052603260045260246000fd5b906000526020600020906005020160000160009054906101000a900473ffffffffffffffffffffffffffffffffffffffff1673ffffffffffffffffffffffffffffffffffffffff16614c37909392919063ffffffff16565b5050565b612aa361485b565b73ffffffffffffffffffffffffffffffffffffffff16612ac1612907565b73ffffffffffffffffffffffffffffffffffffffff1614612b17576040517f08c379a0000000000000000000000000000000000000000000000000000000008152600401612b0e90615c80565b60405180910390fd5b806007819055507f0c798653a8c8127eb23f2436b84f0fd4ce8d4ca200724dd21f26c739ea03945381604051612b4d9190615e1b565b60405180910390a150565b60075481565b600b60009054906101000a900473ffffffffffffffffffffffffffffffffffffffff1681565b612b8c61485b565b73ffffffffffffffffffffffffffffffffffffffff16612baa612907565b73ffffffffffffffffffffffffffffffffffffffff1614612c00576040517f08c379a0000000000000000000000000000000000000000000000000000000008152600401612bf790615c80565b60405180910390fd5b600b60159054906101000a900460ff1615600b60156101000a81548160ff0219169083151502179055507f0ea6d908123142455783f75e44b94efc09959f5d0e069c4ba0c93b7605fe1251600b60159054906101000a900460ff16604051612c689190615a23565b60405180910390a1565b612c7a61485b565b73ffffffffffffffffffffffffffffffffffffffff16612c98612907565b73ffffffffffffffffffffffffffffffffffffffff1614612cee576040517f08c379a0000000000000000000000000000000000000000000000000000000008152600401612ce590615c80565b60405180910390fd5b6001600081548110612d29577f4e487b7100000000000000000000000000000000000000000000000000000000600052603260045260246000fd5b906000526020600020906005020160000160009054906101000a900473ffffffffffffffffffffffffffffffffffffffff1673ffffffffffffffffffffffffffffffffffffffff168273ffffffffffffffffffffffffffffffffffffffff161415612ed357600954816001600081548110612dcd577f4e487b7100000000000000000000000000000000000000000000000000000000600052603260045260246000fd5b906000526020600020906005020160000160009054906101000a900473ffffffffffffffffffffffffffffffffffffffff1673ffffffffffffffffffffffffffffffffffffffff166370a08231306040518263ffffffff1660e01b8152600401612e379190615971565b60206040518083038186803b158015612e4f57600080fd5b505afa158015612e63573d6000803e3d6000fd5b505050506040513d601f19601f82011682018060405250810190612e879190615449565b612e9191906160ff565b1015612ed2576040517f08c379a0000000000000000000000000000000000000000000000000000000008152600401612ec990615c60565b60405180910390fd5b5b612efe33828473ffffffffffffffffffffffffffffffffffffffff166147d59092919063ffffffff16565b5050565b600b60149054906101000a900460ff16612f51576040517f08c379a0000000000000000000000000000000000000000000000000000000008152600401612f4890615b40565b60405180910390fd5b3360005b612f5f60026147a6565b8110156131a95760006008549050612f89612f848360026147bb90919063ffffffff16565b61272a565b6001612f9f8460026147bb90919063ffffffff16565b81548110612fd6577f4e487b7100000000000000000000000000000000000000000000000000000000600052603260045260246000fd5b90600052602060002090600502016002018190555042600881905550600073ffffffffffffffffffffffffffffffffffffffff168373ffffffffffffffffffffffffffffffffffffffff1614613171576130438361303e8460026147bb90919063ffffffff16565b611e4a565b6006600061305b8560026147bb90919063ffffffff16565b815260200190815260200160002060008573ffffffffffffffffffffffffffffffffffffffff1673ffffffffffffffffffffffffffffffffffffffff1681526020019081526020016000208190555060016130c08360026147bb90919063ffffffff16565b815481106130f7577f4e487b7100000000000000000000000000000000000000000000000000000000600052603260045260246000fd5b906000526020600020906005020160020154600560006131218560026147bb90919063ffffffff16565b815260200190815260200160002060008573ffffffffffffffffffffffffffffffffffffffff1673ffffffffffffffffffffffffffffffffffffffff168152602001908152602001600020819055505b600161317d60026147a6565b61318791906160ff565b821461319557806008819055505b5080806131a19061620f565b915050612f55565b506000600460003373ffffffffffffffffffffffffffffffffffffffff1673ffffffffffffffffffffffffffffffffffffffff16815260200190815260200160002060010160089054906101000a900465ffffffffffff1665ffffffffffff16141561324a576040517f08c379a000000000000000000000000000000000000000000000000000000000815260040161324190615c40565b60405180910390fd5b6000821161328d576040517f08c379a000000000000000000000000000000000000000000000000000000000815260040161328490615ce0565b60405180910390fd5b42600460003373ffffffffffffffffffffffffffffffffffffffff1673ffffffffffffffffffffffffffffffffffffffff16815260200190815260200160002060010160089054906101000a900465ffffffffffff1665ffffffffffff161161332b576040517f08c379a000000000000000000000000000000000000000000000000000000000815260040161332290615ca0565b60405180910390fd5b600061339d42600460003373ffffffffffffffffffffffffffffffffffffffff1673ffffffffffffffffffffffffffffffffffffffff16815260200190815260200160002060010160089054906101000a900465ffffffffffff1665ffffffffffff1661339891906160ff565b612011565b905082600460003373ffffffffffffffffffffffffffffffffffffffff1673ffffffffffffffffffffffffffffffffffffffff168152602001908152602001600020600001546133ed9190615ead565b8161ffff16846133fd91906160a5565b6134063361154d565b6134109190615ead565b61341a9190615f03565b600460003373ffffffffffffffffffffffffffffffffffffffff1673ffffffffffffffffffffffffffffffffffffffff16815260200190815260200160002060010160006101000a81548161ffff021916908361ffff160217905550828161ffff1661348691906160a5565b600a60008282546134979190615ead565b925050819055507fc99af680b1fbf26765590d39c77d6cb5f02899c1348305339bc6be1d57f15bb033846040516134cf9291906159c3565b60405180910390a16134e083614cc0565b505050565b60046020528060005260406000206000915090508060000154908060010160009054906101000a900461ffff16908060010160029054906101000a900465ffffffffffff16908060010160089054906101000a900465ffffffffffff16905084565b60085481565b6000600a546103e8836301e1853e6001600081548110613596577f4e487b7100000000000000000000000000000000000000000000000000000000600052603260045260246000fd5b9060005260206000209060050201600101546135b291906160a5565b6135bc91906160a5565b6135c691906160a5565b6135d09190615f03565b9050919050565b6135df61485b565b73ffffffffffffffffffffffffffffffffffffffff166135fd612907565b73ffffffffffffffffffffffffffffffffffffffff1614613653576040517f08c379a000000000000000000000000000000000000000000000000000000000815260040161364a90615c80565b60405180910390fd5b600b60149054906101000a900460ff1615600b60146101000a81548160ff0219169083151502179055507f478c04b50970f9a6e9ecccca7180cd036877141e6d9b48621ceef407a93322b1600b60149054906101000a900460ff166040516136bb9190615a23565b60405180910390a1565b600b60149054906101000a900460ff16613714576040517f08c379a000000000000000000000000000000000000000000000000000000000815260040161370b90615b40565b60405180910390fd5b3360005b61372260026147a6565b81101561396c576000600854905061374c6137478360026147bb90919063ffffffff16565b61272a565b60016137628460026147bb90919063ffffffff16565b81548110613799577f4e487b7100000000000000000000000000000000000000000000000000000000600052603260045260246000fd5b90600052602060002090600502016002018190555042600881905550600073ffffffffffffffffffffffffffffffffffffffff168373ffffffffffffffffffffffffffffffffffffffff161461393457613806836138018460026147bb90919063ffffffff16565b611e4a565b6006600061381e8560026147bb90919063ffffffff16565b815260200190815260200160002060008573ffffffffffffffffffffffffffffffffffffffff1673ffffffffffffffffffffffffffffffffffffffff1681526020019081526020016000208190555060016138838360026147bb90919063ffffffff16565b815481106138ba577f4e487b7100000000000000000000000000000000000000000000000000000000600052603260045260246000fd5b906000526020600020906005020160020154600560006138e48560026147bb90919063ffffffff16565b815260200190815260200160002060008573ffffffffffffffffffffffffffffffffffffffff1673ffffffffffffffffffffffffffffffffffffffff168152602001908152602001600020819055505b600161394060026147a6565b61394a91906160ff565b821461395857806008819055505b5080806139649061620f565b915050613718565b506000600460003373ffffffffffffffffffffffffffffffffffffffff1673ffffffffffffffffffffffffffffffffffffffff16815260200190815260200160002060010160089054906101000a900465ffffffffffff1665ffffffffffff1614613a0c576040517f08c379a0000000000000000000000000000000000000000000000000000000008152600401613a0390615d20565b60405180910390fd5b60008311613a4f576040517f08c379a0000000000000000000000000000000000000000000000000000000008152600401613a4690615b20565b60405180910390fd5b60008211613a92576040517f08c379a0000000000000000000000000000000000000000000000000000000008152600401613a8990615de0565b60405180910390fd5b6007548242613aa19190615ead565b10613ae1576040517f08c379a0000000000000000000000000000000000000000000000000000000008152600401613ad890615aa0565b60405180910390fd5b613aea82612011565b600460003373ffffffffffffffffffffffffffffffffffffffff1673ffffffffffffffffffffffffffffffffffffffff16815260200190815260200160002060010160006101000a81548161ffff021916908361ffff1602179055508142613b529190615ead565b600460003373ffffffffffffffffffffffffffffffffffffffff1673ffffffffffffffffffffffffffffffffffffffff16815260200190815260200160002060010160086101000a81548165ffffffffffff021916908365ffffffffffff16021790555042600460003373ffffffffffffffffffffffffffffffffffffffff1673ffffffffffffffffffffffffffffffffffffffff16815260200190815260200160002060010160026101000a81548165ffffffffffff021916908365ffffffffffff16021790555082600460003373ffffffffffffffffffffffffffffffffffffffff1673ffffffffffffffffffffffffffffffffffffffff16815260200190815260200160002060010160009054906101000a900461ffff1661ffff16613c7b91906160a5565b600a6000828254613c8c9190615ead565b925050819055507f1449c6dd7851abc30abf37f57715f492010519147cc2652fbc38202c18a6ee90338484604051613cc6939291906159ec565b60405180910390a1613cd783614cc0565b505050565b3360005b613cea60026147a6565b811015613f345760006008549050613d14613d0f8360026147bb90919063ffffffff16565b61272a565b6001613d2a8460026147bb90919063ffffffff16565b81548110613d61577f4e487b7100000000000000000000000000000000000000000000000000000000600052603260045260246000fd5b90600052602060002090600502016002018190555042600881905550600073ffffffffffffffffffffffffffffffffffffffff168373ffffffffffffffffffffffffffffffffffffffff1614613efc57613dce83613dc98460026147bb90919063ffffffff16565b611e4a565b60066000613de68560026147bb90919063ffffffff16565b815260200190815260200160002060008573ffffffffffffffffffffffffffffffffffffffff1673ffffffffffffffffffffffffffffffffffffffff168152602001908152602001600020819055506001613e4b8360026147bb90919063ffffffff16565b81548110613e82577f4e487b7100000000000000000000000000000000000000000000000000000000600052603260045260246000fd5b90600052602060002090600502016002015460056000613eac8560026147bb90919063ffffffff16565b815260200190815260200160002060008573ffffffffffffffffffffffffffffffffffffffff1673ffffffffffffffffffffffffffffffffffffffff168152602001908152602001600020819055505b6001613f0860026147a6565b613f1291906160ff565b8214613f2057806008819055505b508080613f2c9061620f565b915050613ce0565b50600b60169054906101000a900460ff16613f84576040517f08c379a0000000000000000000000000000000000000000000000000000000008152600401613f7b90615be0565b60405180910390fd5b6000600460003373ffffffffffffffffffffffffffffffffffffffff1673ffffffffffffffffffffffffffffffffffffffff1681526020019081526020016000206000015411614009576040517f08c379a000000000000000000000000000000000000000000000000000000000815260040161400090615a80565b60405180910390fd5b600460003373ffffffffffffffffffffffffffffffffffffffff1673ffffffffffffffffffffffffffffffffffffffff16815260200190815260200160002060000154600460003373ffffffffffffffffffffffffffffffffffffffff1673ffffffffffffffffffffffffffffffffffffffff16815260200190815260200160002060010160009054906101000a900461ffff1661ffff166140ab91906160a5565b600a60008282546140bc91906160ff565b92505081905550614110600460003373ffffffffffffffffffffffffffffffffffffffff1673ffffffffffffffffffffffffffffffffffffffff16815260200190815260200160002060000154600061487d565b50565b3360005b61412160026147a6565b81101561436b576000600854905061414b6141468360026147bb90919063ffffffff16565b61272a565b60016141618460026147bb90919063ffffffff16565b81548110614198577f4e487b7100000000000000000000000000000000000000000000000000000000600052603260045260246000fd5b90600052602060002090600502016002018190555042600881905550600073ffffffffffffffffffffffffffffffffffffffff168373ffffffffffffffffffffffffffffffffffffffff161461433357614205836142008460026147bb90919063ffffffff16565b611e4a565b6006600061421d8560026147bb90919063ffffffff16565b815260200190815260200160002060008573ffffffffffffffffffffffffffffffffffffffff1673ffffffffffffffffffffffffffffffffffffffff1681526020019081526020016000208190555060016142828360026147bb90919063ffffffff16565b815481106142b9577f4e487b7100000000000000000000000000000000000000000000000000000000600052603260045260246000fd5b906000526020600020906005020160020154600560006142e38560026147bb90919063ffffffff16565b815260200190815260200160002060008573ffffffffffffffffffffffffffffffffffffffff1673ffffffffffffffffffffffffffffffffffffffff168152602001908152602001600020819055505b600161433f60026147a6565b61434991906160ff565b821461435757806008819055505b5080806143639061620f565b915050614117565b50614380826002614c1d90919063ffffffff16565b6143bf576040517f08c379a00000000000000000000000000000000000000000000000000000000081526004016143b690615bc0565b60405180910390fd5b60006006600084815260200190815260200160002060003373ffffffffffffffffffffffffffffffffffffffff1673ffffffffffffffffffffffffffffffffffffffff1681526020019081526020016000205490507fb449c24d261a59627b537c8c41c57ab559f4205c56bea745ff61c5521bece214336040516144439190615971565b60405180910390a1600081111561468f5760008314156145a25760095481600160008154811061449c577f4e487b7100000000000000000000000000000000000000000000000000000000600052603260045260246000fd5b906000526020600020906005020160000160009054906101000a900473ffffffffffffffffffffffffffffffffffffffff1673ffffffffffffffffffffffffffffffffffffffff166370a08231306040518263ffffffff1660e01b81526004016145069190615971565b60206040518083038186803b15801561451e57600080fd5b505afa158015614532573d6000803e3d6000fd5b505050506040513d601f19601f820116820180604052508101906145569190615449565b61456091906160ff565b10156145a1576040517f08c379a000000000000000000000000000000000000000000000000000000000815260040161459890615ae0565b60405180910390fd5b5b60006006600085815260200190815260200160002060003373ffffffffffffffffffffffffffffffffffffffff1673ffffffffffffffffffffffffffffffffffffffff1681526020019081526020016000208190555061468e338260018681548110614637577f4e487b7100000000000000000000000000000000000000000000000000000000600052603260045260246000fd5b906000526020600020906005020160000160009054906101000a900473ffffffffffffffffffffffffffffffffffffffff1673ffffffffffffffffffffffffffffffffffffffff166147d59092919063ffffffff16565b5b505050565b61469c61485b565b73ffffffffffffffffffffffffffffffffffffffff166146ba612907565b73ffffffffffffffffffffffffffffffffffffffff1614614710576040517f08c379a000000000000000000000000000000000000000000000000000000000815260040161470790615c80565b60405180910390fd5b600073ffffffffffffffffffffffffffffffffffffffff168173ffffffffffffffffffffffffffffffffffffffff161415614780576040517f08c379a000000000000000000000000000000000000000000000000000000000815260040161477790615a60565b60405180910390fd5b61478981614b59565b50565b600061479e836000018360001b614dce565b905092915050565b60006147b482600001614e3e565b9050919050565b60006147ca8360000183614e4f565b60001c905092915050565b6148568363a9059cbb60e01b84846040516024016147f49291906159c3565b604051602081830303815290604052907bffffffffffffffffffffffffffffffffffffffffffffffffffffffff19166020820180517bffffffffffffffffffffffffffffffffffffffffffffffffffffffff8381831617835250505050614ea0565b505050565b600033905090565b6000614875836000018360001b614f67565b905092915050565b81600460003373ffffffffffffffffffffffffffffffffffffffff1673ffffffffffffffffffffffffffffffffffffffff16815260200190815260200160002060000154141561495d57600460003373ffffffffffffffffffffffffffffffffffffffff1673ffffffffffffffffffffffffffffffffffffffff1681526020019081526020016000206000808201600090556001820160006101000a81549061ffff02191690556001820160026101000a81549065ffffffffffff02191690556001820160086101000a81549065ffffffffffff021916905550506149b7565b81600460003373ffffffffffffffffffffffffffffffffffffffff1673ffffffffffffffffffffffffffffffffffffffff16815260200190815260200160002060000160008282546149af91906160ff565b925050819055505b81600960008282546149c991906160ff565b925050819055506000811115614abe576000606482846149e991906160a5565b6149f39190615f03565b90508083614a0191906160ff565b9250614abc600b60009054906101000a900473ffffffffffffffffffffffffffffffffffffffff16826001600081548110614a65577f4e487b7100000000000000000000000000000000000000000000000000000000600052603260045260246000fd5b906000526020600020906005020160000160009054906101000a900473ffffffffffffffffffffffffffffffffffffffff1673ffffffffffffffffffffffffffffffffffffffff166147d59092919063ffffffff16565b505b614b5533836001600081548110614afe577f4e487b7100000000000000000000000000000000000000000000000000000000600052603260045260246000fd5b906000526020600020906005020160000160009054906101000a900473ffffffffffffffffffffffffffffffffffffffff1673ffffffffffffffffffffffffffffffffffffffff166147d59092919063ffffffff16565b5050565b60008060009054906101000a900473ffffffffffffffffffffffffffffffffffffffff169050816000806101000a81548173ffffffffffffffffffffffffffffffffffffffff021916908373ffffffffffffffffffffffffffffffffffffffff1602179055508173ffffffffffffffffffffffffffffffffffffffff168173ffffffffffffffffffffffffffffffffffffffff167f8be0079c531659141344cd1fd0a4f28419497f9722a3daafe3b4186f6b6457e060405160405180910390a35050565b6000614c2f836000018360001b6150ed565b905092915050565b614cba846323b872dd60e01b858585604051602401614c589392919061598c565b604051602081830303815290604052907bffffffffffffffffffffffffffffffffffffffffffffffffffffffff19166020820180517bffffffffffffffffffffffffffffffffffffffffffffffffffffffff8381831617835250505050614ea0565b50505050565b8060096000828254614cd29190615ead565b9250508190555080600460003373ffffffffffffffffffffffffffffffffffffffff1673ffffffffffffffffffffffffffffffffffffffff1681526020019081526020016000206000016000828254614d2b9190615ead565b92505081905550614dcb3330836001600081548110614d73577f4e487b7100000000000000000000000000000000000000000000000000000000600052603260045260246000fd5b906000526020600020906005020160000160009054906101000a900473ffffffffffffffffffffffffffffffffffffffff1673ffffffffffffffffffffffffffffffffffffffff16614c37909392919063ffffffff16565b50565b6000614dda83836150ed565b614e33578260000182908060018154018082558091505060019003906000526020600020016000909190919091505582600001805490508360010160008481526020019081526020016000208190555060019050614e38565b600090505b92915050565b600081600001805490509050919050565b6000826000018281548110614e8d577f4e487b7100000000000000000000000000000000000000000000000000000000600052603260045260246000fd5b9060005260206000200154905092915050565b6000614f02826040518060400160405280602081526020017f5361666545524332303a206c6f772d6c6576656c2063616c6c206661696c65648152508573ffffffffffffffffffffffffffffffffffffffff166151109092919063ffffffff16565b9050600081511115614f625780806020019051810190614f2291906153f7565b614f61576040517f08c379a0000000000000000000000000000000000000000000000000000000008152600401614f5890615da0565b60405180910390fd5b5b505050565b600080836001016000848152602001908152602001600020549050600081146150e1576000600182614f9991906160ff565b9050600060018660000180549050614fb191906160ff565b905081811461506c576000866000018281548110614ff8577f4e487b7100000000000000000000000000000000000000000000000000000000600052603260045260246000fd5b9060005260206000200154905080876000018481548110615042577f4e487b7100000000000000000000000000000000000000000000000000000000600052603260045260246000fd5b90600052602060002001819055508387600101600083815260200190815260200160002081905550505b856000018054806150a6577f4e487b7100000000000000000000000000000000000000000000000000000000600052603160045260246000fd5b6001900381819060005260206000200160009055905585600101600086815260200190815260200160002060009055600193505050506150e7565b60009150505b92915050565b600080836001016000848152602001908152602001600020541415905092915050565b606061511f8484600085615128565b90509392505050565b60608247101561516d576040517f08c379a000000000000000000000000000000000000000000000000000000000815260040161516490615ba0565b60405180910390fd5b6151768561523c565b6151b5576040517f08c379a00000000000000000000000000000000000000000000000000000000081526004016151ac90615d60565b60405180910390fd5b6000808673ffffffffffffffffffffffffffffffffffffffff1685876040516151de919061595a565b60006040518083038185875af1925050503d806000811461521b576040519150601f19603f3d011682016040523d82523d6000602084013e615220565b606091505b509150915061523082828661525f565b92505050949350505050565b6000808273ffffffffffffffffffffffffffffffffffffffff163b119050919050565b6060831561526f578290506152bf565b6000835111156152825782518084602001fd5b816040517f08c379a00000000000000000000000000000000000000000000000000000000081526004016152b69190615a3e565b60405180910390fd5b9392505050565b6000813590506152d581616a97565b92915050565b6000815190506152ea81616aae565b92915050565b6000813590506152ff81616ac5565b92915050565b60008151905061531481616ac5565b92915050565b60008135905061532981616adc565b92915050565b60006020828403121561534157600080fd5b600061534f848285016152c6565b91505092915050565b6000806040838503121561536b57600080fd5b6000615379858286016152c6565b925050602061538a858286016152f0565b9150509250929050565b600080600080608085870312156153aa57600080fd5b60006153b8878288016152c6565b94505060206153c9878288016152f0565b93505060406153da878288016152f0565b92505060606153eb8782880161531a565b91505092959194509250565b60006020828403121561540957600080fd5b6000615417848285016152db565b91505092915050565b60006020828403121561543257600080fd5b6000615440848285016152f0565b91505092915050565b60006020828403121561545b57600080fd5b600061546984828501615305565b91505092915050565b6000806040838503121561548557600080fd5b6000615493858286016152f0565b92505060206154a4858286016152f0565b9150509250929050565b6154b781616167565b82525050565b6154c681616179565b82525050565b60006154d782615e7b565b6154e18185615e91565b93506154f18185602086016161dc565b80840191505092915050565b600061550882615e86565b6155128185615e9c565b93506155228185602086016161dc565b61552b816162b6565b840191505092915050565b6000615543602683615e9c565b915061554e826162d4565b604082019050919050565b6000615566602683615e9c565b915061557182616323565b604082019050919050565b6000615589602383615e9c565b915061559482616372565b604082019050919050565b60006155ac601d83615e9c565b91506155b7826163c1565b602082019050919050565b60006155cf602983615e9c565b91506155da826163ea565b604082019050919050565b60006155f2602483615e9c565b91506155fd82616439565b604082019050919050565b6000615615602383615e9c565b915061562082616488565b604082019050919050565b6000615638601d83615e9c565b9150615643826164d7565b602082019050919050565b600061565b602e83615e9c565b915061566682616500565b604082019050919050565b600061567e602c83615e9c565b91506156898261654f565b604082019050919050565b60006156a1602683615e9c565b91506156ac8261659e565b604082019050919050565b60006156c4602983615e9c565b91506156cf826165ed565b604082019050919050565b60006156e7602983615e9c565b91506156f28261663c565b604082019050919050565b600061570a602a83615e9c565b91506157158261668b565b604082019050919050565b600061572d601883615e9c565b9150615738826166da565b602082019050919050565b6000615750602a83615e9c565b915061575b82616703565b604082019050919050565b6000615773603a83615e9c565b915061577e82616752565b604082019050919050565b6000615796602083615e9c565b91506157a1826167a1565b602082019050919050565b60006157b9602983615e9c565b91506157c4826167ca565b604082019050919050565b60006157dc602783615e9c565b91506157e782616819565b604082019050919050565b60006157ff602683615e9c565b915061580a82616868565b604082019050919050565b6000615822601783615e9c565b915061582d826168b7565b602082019050919050565b6000615845601e83615e9c565b9150615850826168e0565b602082019050919050565b6000615868601a83615e9c565b915061587382616909565b602082019050919050565b600061588b601d83615e9c565b915061589682616932565b602082019050919050565b60006158ae602783615e9c565b91506158b98261695b565b604082019050919050565b60006158d1602a83615e9c565b91506158dc826169aa565b604082019050919050565b60006158f4602e83615e9c565b91506158ff826169f9565b604082019050919050565b6000615917602183615e9c565b915061592282616a48565b604082019050919050565b61593681616185565b82525050565b615945816161b3565b82525050565b615954816161bd565b82525050565b600061596682846154cc565b915081905092915050565b600060208201905061598660008301846154ae565b92915050565b60006060820190506159a160008301866154ae565b6159ae60208301856154ae565b6159bb604083018461593c565b949350505050565b60006040820190506159d860008301856154ae565b6159e5602083018461593c565b9392505050565b6000606082019050615a0160008301866154ae565b615a0e602083018561593c565b615a1b604083018461593c565b949350505050565b6000602082019050615a3860008301846154bd565b92915050565b60006020820190508181036000830152615a5881846154fd565b905092915050565b60006020820190508181036000830152615a7981615536565b9050919050565b60006020820190508181036000830152615a9981615559565b9050919050565b60006020820190508181036000830152615ab98161557c565b9050919050565b60006020820190508181036000830152615ad98161559f565b9050919050565b60006020820190508181036000830152615af9816155c2565b9050919050565b60006020820190508181036000830152615b19816155e5565b9050919050565b60006020820190508181036000830152615b3981615608565b9050919050565b60006020820190508181036000830152615b598161562b565b9050919050565b60006020820190508181036000830152615b798161564e565b9050919050565b60006020820190508181036000830152615b9981615671565b9050919050565b60006020820190508181036000830152615bb981615694565b9050919050565b60006020820190508181036000830152615bd9816156b7565b9050919050565b60006020820190508181036000830152615bf9816156da565b9050919050565b60006020820190508181036000830152615c19816156fd565b9050919050565b60006020820190508181036000830152615c3981615720565b9050919050565b60006020820190508181036000830152615c5981615743565b9050919050565b60006020820190508181036000830152615c7981615766565b9050919050565b60006020820190508181036000830152615c9981615789565b9050919050565b60006020820190508181036000830152615cb9816157ac565b9050919050565b60006020820190508181036000830152615cd9816157cf565b9050919050565b60006020820190508181036000830152615cf9816157f2565b9050919050565b60006020820190508181036000830152615d1981615815565b9050919050565b60006020820190508181036000830152615d3981615838565b9050919050565b60006020820190508181036000830152615d598161585b565b9050919050565b60006020820190508181036000830152615d798161587e565b9050919050565b60006020820190508181036000830152615d99816158a1565b9050919050565b60006020820190508181036000830152615db9816158c4565b9050919050565b60006020820190508181036000830152615dd9816158e7565b9050919050565b60006020820190508181036000830152615df98161590a565b9050919050565b6000602082019050615e15600083018461592d565b92915050565b6000602082019050615e30600083018461593c565b92915050565b6000608082019050615e4b600083018761593c565b615e58602083018661592d565b615e65604083018561594b565b615e72606083018461594b565b95945050505050565b600081519050919050565b600081519050919050565b600081905092915050565b600082825260208201905092915050565b6000615eb8826161b3565b9150615ec3836161b3565b9250827fffffffffffffffffffffffffffffffffffffffffffffffffffffffffffffffff03821115615ef857615ef7616258565b5b828201905092915050565b6000615f0e826161b3565b9150615f19836161b3565b925082615f2957615f28616287565b5b828204905092915050565b6000808291508390505b6001851115615f7e57808604811115615f5a57615f59616258565b5b6001851615615f695780820291505b8081029050615f77856162c7565b9450615f3e565b94509492505050565b6000615f92826161b3565b9150615f9d836161cf565b9250615fca7fffffffffffffffffffffffffffffffffffffffffffffffffffffffffffffffff8484615fd2565b905092915050565b600082615fe2576001905061609e565b81615ff0576000905061609e565b816001811461600657600281146160105761603f565b600191505061609e565b60ff84111561602257616021616258565b5b8360020a91508482111561603957616038616258565b5b5061609e565b5060208310610133831016604e8410600b84101617156160745782820a90508381111561606f5761606e616258565b5b61609e565b6160818484846001615f34565b9250905081840481111561609857616097616258565b5b81810290505b9392505050565b60006160b0826161b3565b91506160bb836161b3565b9250817fffffffffffffffffffffffffffffffffffffffffffffffffffffffffffffffff04831182151516156160f4576160f3616258565b5b828202905092915050565b600061610a826161b3565b9150616115836161b3565b92508282101561612857616127616258565b5b828203905092915050565b600061613e826161bd565b9150616149836161bd565b92508282101561615c5761615b616258565b5b828203905092915050565b600061617282616193565b9050919050565b60008115159050919050565b600061ffff82169050919050565b600073ffffffffffffffffffffffffffffffffffffffff82169050919050565b6000819050919050565b600065ffffffffffff82169050919050565b600060ff82169050919050565b60005b838110156161fa5780820151818401526020810190506161df565b83811115616209576000848401525b50505050565b600061621a826161b3565b91507fffffffffffffffffffffffffffffffffffffffffffffffffffffffffffffffff82141561624d5761624c616258565b5b600182019050919050565b7f4e487b7100000000000000000000000000000000000000000000000000000000600052601160045260246000fd5b7f4e487b7100000000000000000000000000000000000000000000000000000000600052601260045260246000fd5b6000601f19601f8301169050919050565b60008160011c9050919050565b7f4f776e61626c653a206e6577206f776e657220697320746865207a65726f206160008201527f6464726573730000000000000000000000000000000000000000000000000000602082015250565b7f5b656d657267656e637957697468647261775d204e6f207374616b656420626160008201527f6c616e63652e0000000000000000000000000000000000000000000000000000602082015250565b7f5b696e697469616c5374616b655d204c6f636b206c696d69742065786365656460008201527f6564210000000000000000000000000000000000000000000000000000000000602082015250565b7f5b77697468647261775d204e6f207374616b65642062616c616e63652e000000600082015250565b7f5b636c61696d53696e676c655265776172645d204e6f20636c61696d61626c6560008201527f2062616c616e63652e0000000000000000000000000000000000000000000000602082015250565b7f5b6164644e6577526577617264546f6b656e5d2041646472657373206661696c60008201527f7572652e00000000000000000000000000000000000000000000000000000000602082015250565b7f5b696e697469616c5374616b655d20496e73756666696369656e7420616d6f7560008201527f6e742e0000000000000000000000000000000000000000000000000000000000602082015250565b7f4e6f7420616e20616374697665207374616b696e6720706572696f642e000000600082015250565b7f5b6465706f736974526577617264546f6b656e735d204e6f742061637469766560008201527f207265776172642064697374722e000000000000000000000000000000000000602082015250565b7f5b64656c697374526577617264546f6b656e5d2044697374722074696d65206860008201527f6173206e6f74206f7665722e0000000000000000000000000000000000000000602082015250565b7f416464726573733a20696e73756666696369656e742062616c616e636520666f60008201527f722063616c6c0000000000000000000000000000000000000000000000000000602082015250565b7f5b636c61696d53696e676c655265776172645d204e6f7420616e20616374697660008201527f65207265776172642e0000000000000000000000000000000000000000000000602082015250565b7f5b656d657267656e637957697468647261775d204e6f7420656d657267656e6360008201527f79207374617475732e0000000000000000000000000000000000000000000000602082015250565b7f5b64656c697374526577617264546f6b656e5d2044656c697374696e6720756e60008201527f7375636365737366756c00000000000000000000000000000000000000000000602082015250565b7f496e617070726f7072696174652074696d657374616d702e0000000000000000600082015250565b7f5b6164646974696f6e616c5374616b655d20496e697469616c207374616b652060008201527f6e6f7420666f756e642100000000000000000000000000000000000000000000602082015250565b7f5b7769746864726177537475636b546f6b656e735d205573657273207374616b60008201527f696e67732063616e206e6f742062652077697468647261776e2e000000000000602082015250565b7f4f776e61626c653a2063616c6c6572206973206e6f7420746865206f776e6572600082015250565b7f5b6164646974696f6e616c5374616b655d205265616368656420756e6c6f636b60008201527f696e672074696d65210000000000000000000000000000000000000000000000602082015250565b7f5b636c61696d416c6c526577617264735d204e6f20636c61696d61626c65206260008201527f616c616e63652e00000000000000000000000000000000000000000000000000602082015250565b7f5b6164646974696f6e616c5374616b655d20496e73756666696369656e74206160008201527f6d6f756e742e0000000000000000000000000000000000000000000000000000602082015250565b7f4e6f7420616e20636c61696d696e6720706572696f642e000000000000000000600082015250565b7f5b696e697469616c5374616b655d20416c7265616479207374616b6564210000600082015250565b7f54686520646973747269627574696f6e20686173206f7665722e000000000000600082015250565b7f416464726573733a2063616c6c20746f206e6f6e2d636f6e7472616374000000600082015250565b7f5b6368616e676550656e616c7479416464726573735d2041646472657373206660008201527f61696c7572652e00000000000000000000000000000000000000000000000000602082015250565b7f5361666545524332303a204552433230206f7065726174696f6e20646964206e60008201527f6f74207375636365656400000000000000000000000000000000000000000000602082015250565b7f5b64656c697374526577617264546f6b656e5d2043616e206e6f742064656c6960008201527f7374206d61696e20746f6b656e2e000000000000000000000000000000000000602082015250565b7f5b696e697469616c5374616b655d20496e73756666696369656e742074696d6560008201527f2e00000000000000000000000000000000000000000000000000000000000000602082015250565b616aa081616167565b8114616aab57600080fd5b50565b616ab781616179565b8114616ac257600080fd5b50565b616ace816161b3565b8114616ad957600080fd5b50565b616ae5816161cf565b8114616af057600080fd5b5056fea2646970667358221220c8125158b0f460c707f6e1342c13a49936d4e734f995f69de06ec79396f2b09664736f6c63430008020033",
  "linkReferences": {},
  "deployedLinkReferences": {}
}